:020000020000FC
:1000000010E0B8980FEF04BB889A899A8A9A18E38F
:100010000E9429001EE00E94290016E00E9429008B
:1000200011E00E9429000E943900B09B0C941C0032
:10003000F0E0E0E80C941E00F0E0ECE815911030E0
:1000400031F00E9431000E9439000C941E000C9483
:10005000100015BB90989198929A0E94390092983E
:10006000089515BB909A9198929A0E94390092989F
:1000700008953FEF48E54A95F1F73A95D9F7089585
:10008000454C454354524F4E494353004D4943520A
:0C0090004F434F4E54524F4C4C45520011
:00000001FF
