:020000020000FC
:1000000050E0652FF0E0EEE70FEF04BB889A899A85
:100010008A9A68E30E9428006EE00E94280066E049
:100020000E94280061E00E9428000E94380015917B
:10003000103039F05395503131F00E9430000C945B
:1000400017000C94210060EC0E9428000C941D0005
:1000500065BB90989198929A0E9438009298089562
:1000600015BB909A9198929A0E94380092980895A0
:100070003FEF48E54A95F1F73A95D9F708954D498C
:1000800043524F434F4E54524F4C4C455220414ED9
:0E0090004420494E544552464143494E4700D4
:00000001FF
